{
  "contractName": "Certificate",
  "abi": [
    {
      "inputs": [],
      "stateMutability": "nonpayable",
      "type": "constructor"
    },
    {
      "inputs": [
        {
          "internalType": "address",
          "name": "sender",
          "type": "address"
        },
        {
          "internalType": "uint256",
          "name": "tokenId",
          "type": "uint256"
        },
        {
          "internalType": "address",
          "name": "owner",
          "type": "address"
        }
      ],
      "name": "ERC721IncorrectOwner",
      "type": "error"
    },
    {
      "inputs": [
        {
          "internalType": "address",
          "name": "operator",
          "type": "address"
        },
        {
          "internalType": "uint256",
          "name": "tokenId",
          "type": "uint256"
        }
      ],
      "name": "ERC721InsufficientApproval",
      "type": "error"
    },
    {
      "inputs": [
        {
          "internalType": "address",
          "name": "approver",
          "type": "address"
        }
      ],
      "name": "ERC721InvalidApprover",
      "type": "error"
    },
    {
      "inputs": [
        {
          "internalType": "address",
          "name": "operator",
          "type": "address"
        }
      ],
      "name": "ERC721InvalidOperator",
      "type": "error"
    },
    {
      "inputs": [
        {
          "internalType": "address",
          "name": "owner",
          "type": "address"
        }
      ],
      "name": "ERC721InvalidOwner",
      "type": "error"
    },
    {
      "inputs": [
        {
          "internalType": "address",
          "name": "receiver",
          "type": "address"
        }
      ],
      "name": "ERC721InvalidReceiver",
      "type": "error"
    },
    {
      "inputs": [
        {
          "internalType": "address",
          "name": "sender",
          "type": "address"
        }
      ],
      "name": "ERC721InvalidSender",
      "type": "error"
    },
    {
      "inputs": [
        {
          "internalType": "uint256",
          "name": "tokenId",
          "type": "uint256"
        }
      ],
      "name": "ERC721NonexistentToken",
      "type": "error"
    },
    {
      "inputs": [
        {
          "internalType": "address",
          "name": "owner",
          "type": "address"
        }
      ],
      "name": "OwnableInvalidOwner",
      "type": "error"
    },
    {
      "inputs": [
        {
          "internalType": "address",
          "name": "account",
          "type": "address"
        }
      ],
      "name": "OwnableUnauthorizedAccount",
      "type": "error"
    },
    {
      "anonymous": false,
      "inputs": [
        {
          "indexed": true,
          "internalType": "address",
          "name": "owner",
          "type": "address"
        },
        {
          "indexed": true,
          "internalType": "address",
          "name": "approved",
          "type": "address"
        },
        {
          "indexed": true,
          "internalType": "uint256",
          "name": "tokenId",
          "type": "uint256"
        }
      ],
      "name": "Approval",
      "type": "event"
    },
    {
      "anonymous": false,
      "inputs": [
        {
          "indexed": true,
          "internalType": "address",
          "name": "owner",
          "type": "address"
        },
        {
          "indexed": true,
          "internalType": "address",
          "name": "operator",
          "type": "address"
        },
        {
          "indexed": false,
          "internalType": "bool",
          "name": "approved",
          "type": "bool"
        }
      ],
      "name": "ApprovalForAll",
      "type": "event"
    },
    {
      "anonymous": false,
      "inputs": [
        {
          "indexed": true,
          "internalType": "address",
          "name": "previousOwner",
          "type": "address"
        },
        {
          "indexed": true,
          "internalType": "address",
          "name": "newOwner",
          "type": "address"
        }
      ],
      "name": "OwnershipTransferred",
      "type": "event"
    },
    {
      "anonymous": false,
      "inputs": [
        {
          "indexed": true,
          "internalType": "address",
          "name": "from",
          "type": "address"
        },
        {
          "indexed": true,
          "internalType": "address",
          "name": "to",
          "type": "address"
        },
        {
          "indexed": true,
          "internalType": "uint256",
          "name": "tokenId",
          "type": "uint256"
        }
      ],
      "name": "Transfer",
      "type": "event"
    },
    {
      "inputs": [
        {
          "internalType": "address",
          "name": "to",
          "type": "address"
        },
        {
          "internalType": "uint256",
          "name": "tokenId",
          "type": "uint256"
        }
      ],
      "name": "approve",
      "outputs": [],
      "stateMutability": "nonpayable",
      "type": "function"
    },
    {
      "inputs": [
        {
          "internalType": "address",
          "name": "owner",
          "type": "address"
        }
      ],
      "name": "balanceOf",
      "outputs": [
        {
          "internalType": "uint256",
          "name": "",
          "type": "uint256"
        }
      ],
      "stateMutability": "view",
      "type": "function"
    },
    {
      "inputs": [
        {
          "internalType": "uint256",
          "name": "tokenId",
          "type": "uint256"
        }
      ],
      "name": "getApproved",
      "outputs": [
        {
          "internalType": "address",
          "name": "",
          "type": "address"
        }
      ],
      "stateMutability": "view",
      "type": "function"
    },
    {
      "inputs": [
        {
          "internalType": "address",
          "name": "owner",
          "type": "address"
        },
        {
          "internalType": "address",
          "name": "operator",
          "type": "address"
        }
      ],
      "name": "isApprovedForAll",
      "outputs": [
        {
          "internalType": "bool",
          "name": "",
          "type": "bool"
        }
      ],
      "stateMutability": "view",
      "type": "function"
    },
    {
      "inputs": [],
      "name": "name",
      "outputs": [
        {
          "internalType": "string",
          "name": "",
          "type": "string"
        }
      ],
      "stateMutability": "view",
      "type": "function"
    },
    {
      "inputs": [],
      "name": "nextTokenId",
      "outputs": [
        {
          "internalType": "uint256",
          "name": "",
          "type": "uint256"
        }
      ],
      "stateMutability": "view",
      "type": "function"
    },
    {
      "inputs": [],
      "name": "owner",
      "outputs": [
        {
          "internalType": "address",
          "name": "",
          "type": "address"
        }
      ],
      "stateMutability": "view",
      "type": "function"
    },
    {
      "inputs": [
        {
          "internalType": "uint256",
          "name": "tokenId",
          "type": "uint256"
        }
      ],
      "name": "ownerOf",
      "outputs": [
        {
          "internalType": "address",
          "name": "",
          "type": "address"
        }
      ],
      "stateMutability": "view",
      "type": "function"
    },
    {
      "inputs": [],
      "name": "renounceOwnership",
      "outputs": [],
      "stateMutability": "nonpayable",
      "type": "function"
    },
    {
      "inputs": [
        {
          "internalType": "address",
          "name": "from",
          "type": "address"
        },
        {
          "internalType": "address",
          "name": "to",
          "type": "address"
        },
        {
          "internalType": "uint256",
          "name": "tokenId",
          "type": "uint256"
        }
      ],
      "name": "safeTransferFrom",
      "outputs": [],
      "stateMutability": "nonpayable",
      "type": "function"
    },
    {
      "inputs": [
        {
          "internalType": "address",
          "name": "from",
          "type": "address"
        },
        {
          "internalType": "address",
          "name": "to",
          "type": "address"
        },
        {
          "internalType": "uint256",
          "name": "tokenId",
          "type": "uint256"
        },
        {
          "internalType": "bytes",
          "name": "data",
          "type": "bytes"
        }
      ],
      "name": "safeTransferFrom",
      "outputs": [],
      "stateMutability": "nonpayable",
      "type": "function"
    },
    {
      "inputs": [
        {
          "internalType": "address",
          "name": "operator",
          "type": "address"
        },
        {
          "internalType": "bool",
          "name": "approved",
          "type": "bool"
        }
      ],
      "name": "setApprovalForAll",
      "outputs": [],
      "stateMutability": "nonpayable",
      "type": "function"
    },
    {
      "inputs": [
        {
          "internalType": "bytes4",
          "name": "interfaceId",
          "type": "bytes4"
        }
      ],
      "name": "supportsInterface",
      "outputs": [
        {
          "internalType": "bool",
          "name": "",
          "type": "bool"
        }
      ],
      "stateMutability": "view",
      "type": "function"
    },
    {
      "inputs": [],
      "name": "symbol",
      "outputs": [
        {
          "internalType": "string",
          "name": "",
          "type": "string"
        }
      ],
      "stateMutability": "view",
      "type": "function"
    },
    {
      "inputs": [
        {
          "internalType": "uint256",
          "name": "tokenId",
          "type": "uint256"
        }
      ],
      "name": "tokenURI",
      "outputs": [
        {
          "internalType": "string",
          "name": "",
          "type": "string"
        }
      ],
      "stateMutability": "view",
      "type": "function"
    },
    {
      "inputs": [
        {
          "internalType": "address",
          "name": "from",
          "type": "address"
        },
        {
          "internalType": "address",
          "name": "to",
          "type": "address"
        },
        {
          "internalType": "uint256",
          "name": "tokenId",
          "type": "uint256"
        }
      ],
      "name": "transferFrom",
      "outputs": [],
      "stateMutability": "nonpayable",
      "type": "function"
    },
    {
      "inputs": [
        {
          "internalType": "address",
          "name": "newOwner",
          "type": "address"
        }
      ],
      "name": "transferOwnership",
      "outputs": [],
      "stateMutability": "nonpayable",
      "type": "function"
    },
    {
      "inputs": [
        {
          "internalType": "address",
          "name": "recipient",
          "type": "address"
        }
      ],
      "name": "issueCertificate",
      "outputs": [],
      "stateMutability": "nonpayable",
      "type": "function"
    }
  ],
  "bytecode": "0x608060405234801562000010575f80fd5b50336040518060400160405280600b81526020016a436572746966696361746560a81b8152506040518060400160405280600481526020016310d1549560e21b815250815f9081620000639190620001a6565b506001620000728282620001a6565b5050506001600160a01b038116620000a357604051631e4fbdf760e01b81525f600482015260240160405180910390fd5b620000ae81620000b5565b506200026e565b600680546001600160a01b038381166001600160a01b0319831681179093556040519116919082907f8be0079c531659141344cd1fd0a4f28419497f9722a3daafe3b4186f6b6457e0905f90a35050565b634e487b7160e01b5f52604160045260245ffd5b600181811c908216806200012f57607f821691505b6020821081036200014e57634e487b7160e01b5f52602260045260245ffd5b50919050565b601f821115620001a1575f81815260208120601f850160051c810160208610156200017c5750805b601f850160051c820191505b818110156200019d5782815560010162000188565b5050505b505050565b81516001600160401b03811115620001c257620001c262000106565b620001da81620001d384546200011a565b8462000154565b602080601f83116001811462000210575f8415620001f85750858301515b5f19600386901b1c1916600185901b1785556200019d565b5f85815260208120601f198616915b8281101562000240578886015182559484019460019091019084016200021f565b50858210156200025e57878501515f19600388901b60f8161c191681555b5050505050600190811b01905550565b611152806200027c5f395ff3fe608060405234801561000f575f80fd5b5060043610610111575f3560e01c8063715018a61161009e578063a22cb4651161006e578063a22cb46514610229578063b88d4fde1461023c578063c87b56dd1461024f578063e985e9c514610262578063f2fde38b14610275575f80fd5b8063715018a6146101ff57806375794a3c146102075780638da5cb5b1461021057806395d89b4114610221575f80fd5b806323b872dd116100e457806323b872dd14610192578063421928e9146101a557806342842e0e146101b85780636352211e146101cb57806370a08231146101de575f80fd5b806301ffc9a71461011557806306fdde031461013d578063081812fc14610152578063095ea7b31461017d575b5f80fd5b610128610123366004610dc2565b610288565b60405190151581526020015b60405180910390f35b6101456102d9565b6040516101349190610e2a565b610165610160366004610e3c565b610368565b6040516001600160a01b039091168152602001610134565b61019061018b366004610e6e565b61038f565b005b6101906101a0366004610e96565b61039e565b6101906101b3366004610ecf565b61042c565b6101906101c6366004610e96565b610459565b6101656101d9366004610e3c565b610478565b6101f16101ec366004610ecf565b610482565b604051908152602001610134565b6101906104c7565b6101f160075481565b6006546001600160a01b0316610165565b6101456104da565b610190610237366004610ee8565b6104e9565b61019061024a366004610f35565b6104f4565b61014561025d366004610e3c565b61050c565b61012861027036600461100a565b61057d565b610190610283366004610ecf565b6105aa565b5f6001600160e01b031982166380ac58cd60e01b14806102b857506001600160e01b03198216635b5e139f60e01b145b806102d357506301ffc9a760e01b6001600160e01b03198316145b92915050565b60605f80546102e79061103b565b80601f01602080910402602001604051908101604052809291908181526020018280546103139061103b565b801561035e5780601f106103355761010080835404028352916020019161035e565b820191905f5260205f20905b81548152906001019060200180831161034157829003601f168201915b5050505050905090565b5f610372826105e7565b505f828152600460205260409020546001600160a01b03166102d3565b61039a82823361061f565b5050565b6001600160a01b0382166103cc57604051633250574960e11b81525f60048201526024015b60405180910390fd5b5f6103d883833361062c565b9050836001600160a01b0316816001600160a01b031614610426576040516364283d7b60e01b81526001600160a01b03808616600483015260248201849052821660448201526064016103c3565b50505050565b6104346106b6565b60075461044182826106e3565b60078054905f61045083611073565b91905055505050565b61047383838360405180602001604052805f8152506104f4565b505050565b5f6102d3826105e7565b5f6001600160a01b0382166104ac576040516322718ad960e21b81525f60048201526024016103c3565b506001600160a01b03165f9081526003602052604090205490565b6104cf6106b6565b6104d85f6106fc565b565b6060600180546102e79061103b565b61039a33838361074d565b6104ff84848461039e565b61042633858585856107eb565b6060610517826105e7565b505f61052d60408051602081019091525f815290565b90505f81511161054b5760405180602001604052805f815250610576565b8061055584610913565b604051602001610566929190611097565b6040516020818303038152906040525b9392505050565b6001600160a01b039182165f90815260056020908152604080832093909416825291909152205460ff1690565b6105b26106b6565b6001600160a01b0381166105db57604051631e4fbdf760e01b81525f60048201526024016103c3565b6105e4816106fc565b50565b5f818152600260205260408120546001600160a01b0316806102d357604051637e27328960e01b8152600481018490526024016103c3565b61047383838360016109a3565b5f6001600160a01b038416158061064d57506006546001600160a01b031633145b6106a35760405162461bcd60e51b815260206004820152602160248201527f43657274696669636174657320617265206e6f6e2d7472616e7366657261626c6044820152606560f81b60648201526084016103c3565b6106ae848484610aa7565b949350505050565b6006546001600160a01b031633146104d85760405163118cdaa760e01b81523360048201526024016103c3565b61039a828260405180602001604052805f815250610b99565b600680546001600160a01b038381166001600160a01b0319831681179093556040519116919082907f8be0079c531659141344cd1fd0a4f28419497f9722a3daafe3b4186f6b6457e0905f90a35050565b6001600160a01b03821661077f57604051630b61174360e31b81526001600160a01b03831660048201526024016103c3565b6001600160a01b038381165f81815260056020908152604080832094871680845294825291829020805460ff191686151590811790915591519182527f17307eab39ab6107e8899845ad3d59bd9653f200f220920489ca2b5937696c31910160405180910390a3505050565b6001600160a01b0383163b1561090c57604051630a85bd0160e11b81526001600160a01b0384169063150b7a029061082d9088908890879087906004016110c5565b6020604051808303815f875af1925050508015610867575060408051601f3d908101601f1916820190925261086491810190611101565b60015b6108ce573d808015610894576040519150601f19603f3d011682016040523d82523d5f602084013e610899565b606091505b5080515f036108c657604051633250574960e11b81526001600160a01b03851660048201526024016103c3565b805181602001fd5b6001600160e01b03198116630a85bd0160e11b1461090a57604051633250574960e11b81526001600160a01b03851660048201526024016103c3565b505b5050505050565b60605f61091f83610bb0565b60010190505f8167ffffffffffffffff81111561093e5761093e610f21565b6040519080825280601f01601f191660200182016040528015610968576020820181803683370190505b5090508181016020015b5f19016f181899199a1a9b1b9c1cb0b131b232b360811b600a86061a8153600a850494508461097257509392505050565b80806109b757506001600160a01b03821615155b15610a78575f6109c6846105e7565b90506001600160a01b038316158015906109f25750826001600160a01b0316816001600160a01b031614155b8015610a055750610a03818461057d565b155b15610a2e5760405163a9fbf51f60e01b81526001600160a01b03841660048201526024016103c3565b8115610a765783856001600160a01b0316826001600160a01b03167f8c5be1e5ebec7d5bd14f71427d1e84f3dd0314c0f7b2291e5b200ac8c7c3b92560405160405180910390a45b505b50505f90815260046020526040902080546001600160a01b0319166001600160a01b0392909216919091179055565b5f828152600260205260408120546001600160a01b0390811690831615610ad357610ad3818486610c87565b6001600160a01b03811615610b0d57610aee5f855f806109a3565b6001600160a01b0381165f90815260036020526040902080545f190190555b6001600160a01b03851615610b3b576001600160a01b0385165f908152600360205260409020805460010190555b5f8481526002602052604080822080546001600160a01b0319166001600160a01b0389811691821790925591518793918516917fddf252ad1be2c89b69c2b068fc378daa952ba7f163c4a11628f55a4df523b3ef91a4949350505050565b610ba38383610ceb565b610473335f8585856107eb565b5f8072184f03e93ff9f4daa797ed6e38ed64bf6a1f0160401b8310610bee5772184f03e93ff9f4daa797ed6e38ed64bf6a1f0160401b830492506040015b6d04ee2d6d415b85acef81000000008310610c1a576d04ee2d6d415b85acef8100000000830492506020015b662386f26fc100008310610c3857662386f26fc10000830492506010015b6305f5e1008310610c50576305f5e100830492506008015b6127108310610c6457612710830492506004015b60648310610c76576064830492506002015b600a83106102d35760010192915050565b610c92838383610d4c565b610473576001600160a01b038316610cc057604051637e27328960e01b8152600481018290526024016103c3565b60405163177e802f60e01b81526001600160a01b0383166004820152602481018290526044016103c3565b6001600160a01b038216610d1457604051633250574960e11b81525f60048201526024016103c3565b5f610d2083835f61062c565b90506001600160a01b03811615610473576040516339e3563760e11b81525f60048201526024016103c3565b5f6001600160a01b038316158015906106ae5750826001600160a01b0316846001600160a01b03161480610d855750610d85848461057d565b806106ae5750505f908152600460205260409020546001600160a01b03908116911614919050565b6001600160e01b0319811681146105e4575f80fd5b5f60208284031215610dd2575f80fd5b813561057681610dad565b5f5b83811015610df7578181015183820152602001610ddf565b50505f910152565b5f8151808452610e16816020860160208601610ddd565b601f01601f19169290920160200192915050565b602081525f6105766020830184610dff565b5f60208284031215610e4c575f80fd5b5035919050565b80356001600160a01b0381168114610e69575f80fd5b919050565b5f8060408385031215610e7f575f80fd5b610e8883610e53565b946020939093013593505050565b5f805f60608486031215610ea8575f80fd5b610eb184610e53565b9250610ebf60208501610e53565b9150604084013590509250925092565b5f60208284031215610edf575f80fd5b61057682610e53565b5f8060408385031215610ef9575f80fd5b610f0283610e53565b915060208301358015158114610f16575f80fd5b809150509250929050565b634e487b7160e01b5f52604160045260245ffd5b5f805f8060808587031215610f48575f80fd5b610f5185610e53565b9350610f5f60208601610e53565b925060408501359150606085013567ffffffffffffffff80821115610f82575f80fd5b818701915087601f830112610f95575f80fd5b813581811115610fa757610fa7610f21565b604051601f8201601f19908116603f01168101908382118183101715610fcf57610fcf610f21565b816040528281528a6020848701011115610fe7575f80fd5b826020860160208301375f60208483010152809550505050505092959194509250565b5f806040838503121561101b575f80fd5b61102483610e53565b915061103260208401610e53565b90509250929050565b600181811c9082168061104f57607f821691505b60208210810361106d57634e487b7160e01b5f52602260045260245ffd5b50919050565b5f6001820161109057634e487b7160e01b5f52601160045260245ffd5b5060010190565b5f83516110a8818460208801610ddd565b8351908301906110bc818360208801610ddd565b01949350505050565b6001600160a01b03858116825284166020820152604081018390526080606082018190525f906110f790830184610dff565b9695505050505050565b5f60208284031215611111575f80fd5b815161057681610dad56fea2646970667358221220784c08df1a0c8892872311f6f9adfe8af457ba35e42e3176890b51b3bf8ba3d264736f6c63430008150033",
  "immutableReferences": {},
  "source": "// SPDX-License-Identifier: MIT\r\npragma solidity ^0.8.21;\r\n\r\nimport \"@openzeppelin/contracts/token/ERC721/ERC721.sol\";\r\nimport \"@openzeppelin/contracts/access/Ownable.sol\";\r\n\r\ncontract Certificate is ERC721, Ownable {\r\n    uint256 public nextTokenId;\r\n\r\n    constructor() ERC721(\"Certificate\", \"CERT\") Ownable(msg.sender) {}\r\n\r\n    /// @notice Issue a certificate to a recipient. Only owner can call.\r\n    function issueCertificate(address recipient) external onlyOwner {\r\n        uint256 tokenId = nextTokenId;\r\n        _safeMint(recipient, tokenId);\r\n        nextTokenId++;\r\n    }\r\n\r\n    /// @notice Prevent transfers by overriding `_update`\r\n    function _update(address to, uint256 tokenId, address auth) internal override returns (address) {\r\n        require(to == address(0) || msg.sender == owner(), \"Certificates are non-transferable\");\r\n        return super._update(to, tokenId, auth);\r\n    }\r\n}\r\n",
  "sourcePath": "C:\\Users\\Puja\\certs-ecosystem\\contracts\\Certificate.sol",
  "compiler": {
    "name": "solc",
    "version": "0.8.21+commit.d9974bed.Emscripten.clang"
  },
  "schemaVersion": "3.4.16",
  "updatedAt": "2025-02-23T10:46:17.592Z",
  "devdoc": {
    "errors": {
      "ERC721IncorrectOwner(address,uint256,address)": [
        {
          "details": "Indicates an error related to the ownership over a particular token. Used in transfers.",
          "params": {
            "owner": "Address of the current owner of a token.",
            "sender": "Address whose tokens are being transferred.",
            "tokenId": "Identifier number of a token."
          }
        }
      ],
      "ERC721InsufficientApproval(address,uint256)": [
        {
          "details": "Indicates a failure with the `operator`s approval. Used in transfers.",
          "params": {
            "operator": "Address that may be allowed to operate on tokens without being their owner.",
            "tokenId": "Identifier number of a token."
          }
        }
      ],
      "ERC721InvalidApprover(address)": [
        {
          "details": "Indicates a failure with the `approver` of a token to be approved. Used in approvals.",
          "params": {
            "approver": "Address initiating an approval operation."
          }
        }
      ],
      "ERC721InvalidOperator(address)": [
        {
          "details": "Indicates a failure with the `operator` to be approved. Used in approvals.",
          "params": {
            "operator": "Address that may be allowed to operate on tokens without being their owner."
          }
        }
      ],
      "ERC721InvalidOwner(address)": [
        {
          "details": "Indicates that an address can't be an owner. For example, `address(0)` is a forbidden owner in ERC-20. Used in balance queries.",
          "params": {
            "owner": "Address of the current owner of a token."
          }
        }
      ],
      "ERC721InvalidReceiver(address)": [
        {
          "details": "Indicates a failure with the token `receiver`. Used in transfers.",
          "params": {
            "receiver": "Address to which tokens are being transferred."
          }
        }
      ],
      "ERC721InvalidSender(address)": [
        {
          "details": "Indicates a failure with the token `sender`. Used in transfers.",
          "params": {
            "sender": "Address whose tokens are being transferred."
          }
        }
      ],
      "ERC721NonexistentToken(uint256)": [
        {
          "details": "Indicates a `tokenId` whose `owner` is the zero address.",
          "params": {
            "tokenId": "Identifier number of a token."
          }
        }
      ],
      "OwnableInvalidOwner(address)": [
        {
          "details": "The owner is not a valid owner account. (eg. `address(0)`)"
        }
      ],
      "OwnableUnauthorizedAccount(address)": [
        {
          "details": "The caller account is not authorized to perform an operation."
        }
      ]
    },
    "events": {
      "Approval(address,address,uint256)": {
        "details": "Emitted when `owner` enables `approved` to manage the `tokenId` token."
      },
      "ApprovalForAll(address,address,bool)": {
        "details": "Emitted when `owner` enables or disables (`approved`) `operator` to manage all of its assets."
      },
      "Transfer(address,address,uint256)": {
        "details": "Emitted when `tokenId` token is transferred from `from` to `to`."
      }
    },
    "kind": "dev",
    "methods": {
      "approve(address,uint256)": {
        "details": "See {IERC721-approve}."
      },
      "balanceOf(address)": {
        "details": "See {IERC721-balanceOf}."
      },
      "getApproved(uint256)": {
        "details": "See {IERC721-getApproved}."
      },
      "isApprovedForAll(address,address)": {
        "details": "See {IERC721-isApprovedForAll}."
      },
      "name()": {
        "details": "See {IERC721Metadata-name}."
      },
      "owner()": {
        "details": "Returns the address of the current owner."
      },
      "ownerOf(uint256)": {
        "details": "See {IERC721-ownerOf}."
      },
      "renounceOwnership()": {
        "details": "Leaves the contract without owner. It will not be possible to call `onlyOwner` functions. Can only be called by the current owner. NOTE: Renouncing ownership will leave the contract without an owner, thereby disabling any functionality that is only available to the owner."
      },
      "safeTransferFrom(address,address,uint256)": {
        "details": "See {IERC721-safeTransferFrom}."
      },
      "safeTransferFrom(address,address,uint256,bytes)": {
        "details": "See {IERC721-safeTransferFrom}."
      },
      "setApprovalForAll(address,bool)": {
        "details": "See {IERC721-setApprovalForAll}."
      },
      "supportsInterface(bytes4)": {
        "details": "See {IERC165-supportsInterface}."
      },
      "symbol()": {
        "details": "See {IERC721Metadata-symbol}."
      },
      "tokenURI(uint256)": {
        "details": "See {IERC721Metadata-tokenURI}."
      },
      "transferFrom(address,address,uint256)": {
        "details": "See {IERC721-transferFrom}."
      },
      "transferOwnership(address)": {
        "details": "Transfers ownership of the contract to a new account (`newOwner`). Can only be called by the current owner."
      }
    },
    "version": 1
  },
  "userdoc": {
    "kind": "user",
    "methods": {
      "issueCertificate(address)": {
        "notice": "Issue a certificate to a recipient. Only owner can call."
      }
    },
    "version": 1
  }
}