{
  "contractName": "StakingGovernance",
  "abi": [
    {
      "inputs": [
        {
          "internalType": "contract IERC20",
          "name": "_token",
          "type": "address"
        }
      ],
      "stateMutability": "nonpayable",
      "type": "constructor"
    },
    {
      "inputs": [
        {
          "internalType": "address",
          "name": "owner",
          "type": "address"
        }
      ],
      "name": "OwnableInvalidOwner",
      "type": "error"
    },
    {
      "inputs": [
        {
          "internalType": "address",
          "name": "account",
          "type": "address"
        }
      ],
      "name": "OwnableUnauthorizedAccount",
      "type": "error"
    },
    {
      "anonymous": false,
      "inputs": [
        {
          "indexed": true,
          "internalType": "address",
          "name": "previousOwner",
          "type": "address"
        },
        {
          "indexed": true,
          "internalType": "address",
          "name": "newOwner",
          "type": "address"
        }
      ],
      "name": "OwnershipTransferred",
      "type": "event"
    },
    {
      "anonymous": false,
      "inputs": [
        {
          "indexed": true,
          "internalType": "address",
          "name": "user",
          "type": "address"
        },
        {
          "indexed": false,
          "internalType": "uint256",
          "name": "reward",
          "type": "uint256"
        },
        {
          "indexed": false,
          "internalType": "uint256",
          "name": "timestamp",
          "type": "uint256"
        }
      ],
      "name": "RewardDistributed",
      "type": "event"
    },
    {
      "anonymous": false,
      "inputs": [
        {
          "indexed": true,
          "internalType": "address",
          "name": "user",
          "type": "address"
        },
        {
          "indexed": false,
          "internalType": "uint256",
          "name": "amount",
          "type": "uint256"
        },
        {
          "indexed": false,
          "internalType": "uint256",
          "name": "timestamp",
          "type": "uint256"
        }
      ],
      "name": "Staked",
      "type": "event"
    },
    {
      "anonymous": false,
      "inputs": [
        {
          "indexed": true,
          "internalType": "address",
          "name": "user",
          "type": "address"
        },
        {
          "indexed": false,
          "internalType": "uint256",
          "name": "amount",
          "type": "uint256"
        },
        {
          "indexed": false,
          "internalType": "uint256",
          "name": "timestamp",
          "type": "uint256"
        }
      ],
      "name": "Unstaked",
      "type": "event"
    },
    {
      "anonymous": false,
      "inputs": [
        {
          "indexed": true,
          "internalType": "address",
          "name": "user",
          "type": "address"
        },
        {
          "indexed": false,
          "internalType": "uint256",
          "name": "proposalId",
          "type": "uint256"
        },
        {
          "indexed": false,
          "internalType": "uint256",
          "name": "voteAmount",
          "type": "uint256"
        },
        {
          "indexed": false,
          "internalType": "uint256",
          "name": "timestamp",
          "type": "uint256"
        }
      ],
      "name": "Voted",
      "type": "event"
    },
    {
      "inputs": [],
      "name": "certsToken",
      "outputs": [
        {
          "internalType": "contract IERC20",
          "name": "",
          "type": "address"
        }
      ],
      "stateMutability": "view",
      "type": "function"
    },
    {
      "inputs": [],
      "name": "owner",
      "outputs": [
        {
          "internalType": "address",
          "name": "",
          "type": "address"
        }
      ],
      "stateMutability": "view",
      "type": "function"
    },
    {
      "inputs": [
        {
          "internalType": "uint256",
          "name": "",
          "type": "uint256"
        }
      ],
      "name": "proposalVotes",
      "outputs": [
        {
          "internalType": "uint256",
          "name": "",
          "type": "uint256"
        }
      ],
      "stateMutability": "view",
      "type": "function"
    },
    {
      "inputs": [],
      "name": "renounceOwnership",
      "outputs": [],
      "stateMutability": "nonpayable",
      "type": "function"
    },
    {
      "inputs": [
        {
          "internalType": "address",
          "name": "",
          "type": "address"
        }
      ],
      "name": "stakes",
      "outputs": [
        {
          "internalType": "uint256",
          "name": "amount",
          "type": "uint256"
        },
        {
          "internalType": "uint256",
          "name": "timestamp",
          "type": "uint256"
        }
      ],
      "stateMutability": "view",
      "type": "function"
    },
    {
      "inputs": [],
      "name": "totalStaked",
      "outputs": [
        {
          "internalType": "uint256",
          "name": "",
          "type": "uint256"
        }
      ],
      "stateMutability": "view",
      "type": "function"
    },
    {
      "inputs": [
        {
          "internalType": "address",
          "name": "newOwner",
          "type": "address"
        }
      ],
      "name": "transferOwnership",
      "outputs": [],
      "stateMutability": "nonpayable",
      "type": "function"
    },
    {
      "inputs": [
        {
          "internalType": "uint256",
          "name": "amount",
          "type": "uint256"
        }
      ],
      "name": "stake",
      "outputs": [],
      "stateMutability": "nonpayable",
      "type": "function"
    },
    {
      "inputs": [
        {
          "internalType": "uint256",
          "name": "amount",
          "type": "uint256"
        }
      ],
      "name": "unstake",
      "outputs": [],
      "stateMutability": "nonpayable",
      "type": "function"
    },
    {
      "inputs": [
        {
          "internalType": "address",
          "name": "user",
          "type": "address"
        }
      ],
      "name": "stakingMultiplier",
      "outputs": [
        {
          "internalType": "uint256",
          "name": "multiplier",
          "type": "uint256"
        }
      ],
      "stateMutability": "view",
      "type": "function"
    },
    {
      "inputs": [
        {
          "internalType": "address",
          "name": "user",
          "type": "address"
        },
        {
          "internalType": "uint256",
          "name": "baseReward",
          "type": "uint256"
        }
      ],
      "name": "distributeReward",
      "outputs": [],
      "stateMutability": "nonpayable",
      "type": "function"
    },
    {
      "inputs": [
        {
          "internalType": "uint256",
          "name": "proposalId",
          "type": "uint256"
        },
        {
          "internalType": "uint256",
          "name": "voteAmount",
          "type": "uint256"
        }
      ],
      "name": "vote",
      "outputs": [],
      "stateMutability": "nonpayable",
      "type": "function"
    }
  ],
  "bytecode": "0x608060405234801561000f575f80fd5b50604051610b30380380610b3083398101604081905261002e916100d1565b338061005357604051631e4fbdf760e01b81525f600482015260240160405180910390fd5b61005c81610082565b50600180546001600160a01b0319166001600160a01b03929092169190911790556100fe565b5f80546001600160a01b038381166001600160a01b0319831681178455604051919092169283917f8be0079c531659141344cd1fd0a4f28419497f9722a3daafe3b4186f6b6457e09190a35050565b5f602082840312156100e1575f80fd5b81516001600160a01b03811681146100f7575f80fd5b9392505050565b610a258061010b5f395ff3fe608060405234801561000f575f80fd5b50600436106100b1575f3560e01c8063817b1cd21161006e578063817b1cd21461017d5780638da5cb5b14610186578063a694fc3a14610196578063a98e64c6146101a9578063b384abef146101bc578063f2fde38b146101cf575f80fd5b806316934fc4146100b55780631ec8bb8c146100f55780632e17de781461010a578063544ffc9c1461011d578063607de1e21461014a578063715018a614610175575b5f80fd5b6100db6100c33660046108db565b60036020525f90815260409020805460019091015482565b604080519283526020830191909152015b60405180910390f35b6101086101033660046108fb565b6101e2565b005b610108610118366004610923565b610316565b61013c61012b366004610923565b60046020525f908152604090205481565b6040519081526020016100ec565b60015461015d906001600160a01b031681565b6040516001600160a01b0390911681526020016100ec565b6101086104f2565b61013c60025481565b5f546001600160a01b031661015d565b6101086101a4366004610923565b610505565b61013c6101b73660046108db565b61068e565b6101086101ca36600461093a565b6106e5565b6101086101dd3660046108db565b610808565b6101ea610845565b5f6101f48361068e565b90505f6064610203838561096e565b61020d919061098b565b60015460405163a9059cbb60e01b81526001600160a01b0387811660048301526024820184905292935091169063a9059cbb906044016020604051808303815f875af115801561025f573d5f803e3d5ffd5b505050506040513d601f19601f8201168201806040525081019061028391906109aa565b6102cd5760405162461bcd60e51b815260206004820152601660248201527514995dd85c99081d1c985b9cd9995c8819985a5b195960521b60448201526064015b60405180910390fd5b604080518281524260208201526001600160a01b038616917f53118bff2fb56701752f5bf54053d24fb83cec92f9f6ce664b90c38a2991caa4910160405180910390a250505050565b5f81116103655760405162461bcd60e51b815260206004820152601760248201527f43616e6e6f7420756e7374616b65203020746f6b656e7300000000000000000060448201526064016102c4565b335f908152600360205260409020548111156103c35760405162461bcd60e51b815260206004820152601a60248201527f496e73756666696369656e74207374616b656420746f6b656e7300000000000060448201526064016102c4565b335f90815260036020526040812080548392906103e19084906109c9565b925050819055508060025f8282546103f991906109c9565b909155505060015460405163a9059cbb60e01b8152336004820152602481018390526001600160a01b039091169063a9059cbb906044016020604051808303815f875af115801561044c573d5f803e3d5ffd5b505050506040513d601f19601f8201168201806040525081019061047091906109aa565b6104b45760405162461bcd60e51b8152602060048201526015602482015274151bdad95b881d1c985b9cd9995c8819985a5b1959605a1b60448201526064016102c4565b6040805182815242602082015233917f7fc4727e062e336010f2c282598ef5f14facb3de68cf8195c2f23e1454b2b74e91015b60405180910390a250565b6104fa610845565b6105035f610871565b565b5f811161054c5760405162461bcd60e51b815260206004820152601560248201527443616e6e6f74207374616b65203020746f6b656e7360581b60448201526064016102c4565b6001546040516323b872dd60e01b8152336004820152306024820152604481018390526001600160a01b03909116906323b872dd906064016020604051808303815f875af11580156105a0573d5f803e3d5ffd5b505050506040513d601f19601f820116820180604052508101906105c491906109aa565b6106085760405162461bcd60e51b8152602060048201526015602482015274151bdad95b881d1c985b9cd9995c8819985a5b1959605a1b60448201526064016102c4565b335f90815260036020526040812080548392906106269084906109dc565b9091555050335f90815260036020526040812042600190910155600280548392906106529084906109dc565b90915550506040805182815242602082015233917f1449c6dd7851abc30abf37f57715f492010519147cc2652fbc38202c18a6ee9091016104e7565b6001600160a01b0381165f9081526003602052604081206001015481906106b590426109c9565b90506106c4620151808261098b565b6106cf9060646109dc565b915060c88211156106df5760c891505b50919050565b5f81116107345760405162461bcd60e51b815260206004820152601c60248201527f566f746520616d6f756e74206d75737420626520706f7369746976650000000060448201526064016102c4565b335f908152600360205260409020548111156107a05760405162461bcd60e51b815260206004820152602560248201527f496e73756666696369656e74207374616b656420746f6b656e7320666f7220766044820152646f74696e6760d81b60648201526084016102c4565b5f82815260046020526040812080548392906107bd9084906109dc565b909155505060408051838152602081018390524281830152905133917fc32b42768a47a585121e9b8d7a2ab9d3f34c326a192dee11ee1732e3d18313f3919081900360600190a25050565b610810610845565b6001600160a01b03811661083957604051631e4fbdf760e01b81525f60048201526024016102c4565b61084281610871565b50565b5f546001600160a01b031633146105035760405163118cdaa760e01b81523360048201526024016102c4565b5f80546001600160a01b038381166001600160a01b0319831681178455604051919092169283917f8be0079c531659141344cd1fd0a4f28419497f9722a3daafe3b4186f6b6457e09190a35050565b80356001600160a01b03811681146108d6575f80fd5b919050565b5f602082840312156108eb575f80fd5b6108f4826108c0565b9392505050565b5f806040838503121561090c575f80fd5b610915836108c0565b946020939093013593505050565b5f60208284031215610933575f80fd5b5035919050565b5f806040838503121561094b575f80fd5b50508035926020909101359150565b634e487b7160e01b5f52601160045260245ffd5b80820281158282048414176109855761098561095a565b92915050565b5f826109a557634e487b7160e01b5f52601260045260245ffd5b500490565b5f602082840312156109ba575f80fd5b815180151581146108f4575f80fd5b818103818111156109855761098561095a565b808201808211156109855761098561095a56fea2646970667358221220762cbdc4547609fcfc56d1a3358acc44cde1dbc39cce4aca821f2be520223cb264736f6c63430008150033",
  "immutableReferences": {},
  "source": "// SPDX-License-Identifier: MIT\r\npragma solidity ^0.8.21;\r\n\r\nimport \"@openzeppelin/contracts/token/ERC20/IERC20.sol\";\r\nimport \"@openzeppelin/contracts/access/Ownable.sol\";\r\n\r\ncontract StakingGovernance is Ownable {\r\n    IERC20 public certsToken;\r\n    uint public totalStaked;\r\n\r\n    struct Stake {\r\n        uint amount;\r\n        uint timestamp;\r\n    }\r\n    mapping(address => Stake) public stakes;\r\n    mapping(uint => uint) public proposalVotes;\r\n\r\n    event Staked(address indexed user, uint amount, uint timestamp);\r\n    event Unstaked(address indexed user, uint amount, uint timestamp);\r\n    event RewardDistributed(address indexed user, uint reward, uint timestamp);\r\n    event Voted(address indexed user, uint proposalId, uint voteAmount, uint timestamp);\r\n\r\n    /// @notice Constructor that sets the token\r\n    constructor(IERC20 _token) Ownable(msg.sender) {\r\n        certsToken = _token;\r\n    }\r\n\r\n    /// @notice Stake a specified amount of CERTs tokens.\r\n    function stake(uint amount) external {\r\n        require(amount > 0, \"Cannot stake 0 tokens\");\r\n        require(certsToken.transferFrom(msg.sender, address(this), amount), \"Token transfer failed\");\r\n\r\n        stakes[msg.sender].amount += amount;\r\n        stakes[msg.sender].timestamp = block.timestamp;\r\n        totalStaked += amount;\r\n\r\n        emit Staked(msg.sender, amount, block.timestamp);\r\n    }\r\n\r\n    /// @notice Unstake a specified amount of tokens.\r\n    function unstake(uint amount) external {\r\n        require(amount > 0, \"Cannot unstake 0 tokens\");\r\n        require(stakes[msg.sender].amount >= amount, \"Insufficient staked tokens\");\r\n\r\n        stakes[msg.sender].amount -= amount;\r\n        totalStaked -= amount;\r\n        require(certsToken.transfer(msg.sender, amount), \"Token transfer failed\");\r\n\r\n        emit Unstaked(msg.sender, amount, block.timestamp);\r\n    }\r\n\r\n    /// @notice Returns a time-based staking multiplier.\r\n    function stakingMultiplier(address user) public view returns (uint multiplier) {\r\n        uint stakedDuration = block.timestamp - stakes[user].timestamp;\r\n        multiplier = 100 + (stakedDuration / 1 days);\r\n        if (multiplier > 200) {\r\n            multiplier = 200;\r\n        }\r\n    }\r\n\r\n    /// @notice Distribute a reward based on a base reward.\r\n    function distributeReward(address user, uint baseReward) external onlyOwner {\r\n        uint multiplier = stakingMultiplier(user);\r\n        uint finalReward = (baseReward * multiplier) / 100;\r\n        require(certsToken.transfer(user, finalReward), \"Reward transfer failed\");\r\n\r\n        emit RewardDistributed(user, finalReward, block.timestamp);\r\n    }\r\n\r\n    /// @notice Vote on a proposal by staking tokens.\r\n    function vote(uint proposalId, uint voteAmount) external {\r\n        require(voteAmount > 0, \"Vote amount must be positive\");\r\n        require(stakes[msg.sender].amount >= voteAmount, \"Insufficient staked tokens for voting\");\r\n\r\n        proposalVotes[proposalId] += voteAmount;\r\n        emit Voted(msg.sender, proposalId, voteAmount, block.timestamp);\r\n    }\r\n}\r\n",
  "sourcePath": "C:\\Users\\Puja\\certs-ecosystem\\contracts\\StakingGovernance.sol",
  "compiler": {
    "name": "solc",
    "version": "0.8.21+commit.d9974bed.Emscripten.clang"
  },
  "schemaVersion": "3.4.16",
  "updatedAt": "2025-02-23T10:46:17.669Z",
  "devdoc": {
    "errors": {
      "OwnableInvalidOwner(address)": [
        {
          "details": "The owner is not a valid owner account. (eg. `address(0)`)"
        }
      ],
      "OwnableUnauthorizedAccount(address)": [
        {
          "details": "The caller account is not authorized to perform an operation."
        }
      ]
    },
    "kind": "dev",
    "methods": {
      "owner()": {
        "details": "Returns the address of the current owner."
      },
      "renounceOwnership()": {
        "details": "Leaves the contract without owner. It will not be possible to call `onlyOwner` functions. Can only be called by the current owner. NOTE: Renouncing ownership will leave the contract without an owner, thereby disabling any functionality that is only available to the owner."
      },
      "transferOwnership(address)": {
        "details": "Transfers ownership of the contract to a new account (`newOwner`). Can only be called by the current owner."
      }
    },
    "version": 1
  },
  "userdoc": {
    "kind": "user",
    "methods": {
      "constructor": {
        "notice": "Constructor that sets the token"
      },
      "distributeReward(address,uint256)": {
        "notice": "Distribute a reward based on a base reward."
      },
      "stake(uint256)": {
        "notice": "Stake a specified amount of CERTs tokens."
      },
      "stakingMultiplier(address)": {
        "notice": "Returns a time-based staking multiplier."
      },
      "unstake(uint256)": {
        "notice": "Unstake a specified amount of tokens."
      },
      "vote(uint256,uint256)": {
        "notice": "Vote on a proposal by staking tokens."
      }
    },
    "version": 1
  }
}